:020000040800F2
:100000000000072089700008D1700008D170000836
:10001000D1700008D1700008D17000080000000005
:10002000000000000000000000000000D170000887
:10003000D170000800000000D17000089B3B000850
:10004000D1700008D1700008D1700008D17000088C
:10005000D1700008D1700008D1700008D17000087C
:10006000D1700008D1700008D1700008D17000086C
:10007000D1700008D1700008D1700008D17000085C
:10008000D1700008D1700008D1700008D17000084C
:10009000D1700008D1700008D1700008D17000083C
:1000A000D1700008D1700008D1700008D17000082C
:1000B000D1700008D1700008D1700008D17000081C
:1000C000D1700008D1700008D1700008D17000080C
:1000D000D17000083D3B0008D1700008D1700008C5
:1000E000D1700008D1700008D1700008D1700008EC
:1000F000D1700008D1700008D1700008D1700008DC
:10010000D1700008D1700008D1700008D1700008CB
:10011000D1700008D1700008D1700008D1700008BB
:10012000D1700008D1700008D1700008D1700008AB
:10013000D1700008D1700008D1700008D17000089B
:10014000D1700008D1700008D1700008D17000088B
:10015000D1700008D1700008D1700008D17000087B
:10016000D1700008D1700008D1700008D17000086B
:10017000D1700008D1700008D170000800000000A4
:10018000D1700008D1700008D1700008D17000084B
:10019000D1700008D1700008D17000080000000084
:0C01A000D1700008D1700008D170000878
:1001C00002780B78012A28BF9A4240F0D8806DE966
:1001D000044540EA0104CDE902676FF0000C4FEAE4
:1001E00044721AB380EA010414F0070F6BD100F0D7
:1001F000070420F0070004F0030521F007014FEA8F
:10020000C505F0E8042314F0040FF1E804670CFAC4
:1002100005F462EA040266EA04060BD063EA04030A
:10022000624667EA0407664604E000BFF0E804237C
:10023000F1E8046782FA4CF582EA0604A4FA8CF429
:100240006CBB83FA4CF583EA0705A5FA8CF595B9E2
:1002500050E9022351E9026782FA4CF582EA06046A
:10026000A4FA8CF483FA4CF583EA0705A5FA8CF519
:100270002543DBD09CB92DBAB5FA85F424F00704E8
:1002800027FA04F1DDE9026723FA04F303F0FF0023
:1002900001F0FF01FDE80445A0EB0100704724BA1E
:1002A000B4FA84F424F0070426FA04F1DDE90267C5
:1002B00022FA04F202F0FF0001F0FF01FDE804451C
:1002C000A0EB0100704714F0030F3CD110F00304C1
:1002D00028D150F8082B51F8083B82FA4CF582EAF5
:1002E0000305A5FA8CF55DB950F8042C51F8043CCF
:1002F00082FA4CF582EA0305A5FA8CF5002DE8D0C8
:100300002DBAB5FA85F424F0070423FA04F122FA91
:1003100004F202F0FF0001F0FF01FDE80445A0EB4C
:10032000010070474FEAC40420F0030050F8082B86
:1003300021F0030151F8083B0CFA04F462EA0402CC
:1003400063EA0403C9E710F003041DD0A1EB040124
:1003500020F00300E40750F8042B06D012D28B786B
:100360005FFAA2F4E41A06D12BB1CB785FFAB2F4AB
:10037000E41A00D133B920465DF8104B7047A2EB68
:100380000300704701F1040150F8042BCC0721F061
:10039000030151F8043B48D824D222F07F4482FA6A
:1003A0004CF594EA1325A5FA8CF50AD165B951F8F4
:1003B000043B84EA0204B4EB036F0ED150F8042B23
:1003C000EBE74FEA132355E035F07F454DD1087830
:1003D000FDE80445C0F1000070474FEA126203F0E7
:1003E000FF0347E002EA1C4482FA4CF594EA134505
:1003F000A5FA8CF50AD165B951F8043B84EA0204E8
:10040000B4EB034F0CD150F8042BEBE74FEA134346
:1004100030E015EA1C4528D10B884FEA124229E04A
:100420004FEA124203EA1C4324E002F0FF0482FA7E
:100430004CF594EA1365A5FA8CF50AD165B951F823
:10044000043B84EA0204B4EB032F09D150F8042BD7
:10045000EBE74FEA13630DE015F0FF0F05D10B68D2
:100460004FEA122223F07F4304E04FF00000FDE842
:100470000445704712BA1BBA82FA4CF482EA0304AC
:10048000A4FA8CF5B5FA85F402FA04F203FA04F33F
:100490004FEA1260FDE80445A0EB1360704700BF0F
:1004A000844641EA000313F003036DD1403A41D37F
:1004B00051F8043B40F8043B51F8043B40F8043B3E
:1004C00051F8043B40F8043B51F8043B40F8043B2E
:1004D00051F8043B40F8043B51F8043B40F8043B1E
:1004E00051F8043B40F8043B51F8043B40F8043B0E
:1004F00051F8043B40F8043B51F8043B40F8043BFE
:1005000051F8043B40F8043B51F8043B40F8043BED
:1005100051F8043B40F8043B51F8043B40F8043BDD
:1005200051F8043B40F8043B51F8043B40F8043BCD
:10053000403ABDD2303211D351F8043B40F8043B6D
:1005400051F8043B40F8043B51F8043B40F8043BAD
:1005500051F8043B40F8043B103AEDD20C3205D37D
:1005600051F8043B40F8043B043AF9D2043208D075
:10057000D2071CBF11F8013B00F8013B01D30B88E7
:1005800003806046704700BF082A13D38B078DD0C5
:1005900010F003038AD0C3F10403D21ADB071CBF97
:1005A00011F8013B00F8013B80D331F8023B20F801
:1005B000023B7BE7043AD9D3013A11F8013B00F83A
:1005C000013BF9D20B7803704B7843708B788370C2
:1005D00060467047000000000000000000000000BE
:1005E000000000000000000000000000000000000B
:1005F00000000000000000000000000000000000FB
:1006000030B490F800F020F007016FF0000C10F00B
:10061000070491F820F040F048804FF000046FF09C
:100620000700D1E9002391F840F000F1080082FAB8
:100630004CF2A4FA8CF283FA4CF3A2FA8CF34BBB83
:10064000D1E9022382FA4CF200F10800A4FA8CF2FC
:1006500083FA4CF3A2FA8CF3E3B9D1E9042382FACA
:100660004CF200F10800A4FA8CF283FA4CF3A2FADF
:100670008CF37BB9D1E9062301F1200182FA4CF217
:1006800000F10800A4FA8CF283FA4CF3A2FA8CF37E
:10069000002BC6D0002A04BF04301A4612BAB2FAA0
:1006A00082F200EBD20030BC7047D1E9002304F0A5
:1006B0000305C4F100004FEAC50514F0040F91F8DA
:1006C00040F00CFA05F562EA05021CBF63EA050377
:1006D00062464FF00004AAE700000000000000009E
:1006E00001F0FF01102A2BDB10F0070F08D010F8E3
:1006F000013B013A8B422DD010F0070F42B3F6D1E7
:10070000F0B441EA012141EA014122F007047FF0FF
:1007100000070023F0E80256083C85EA010586EA56
:10072000010685FA47F5A3FA87F586FA47F6A5FA92
:1007300087F68EB9EED1F0BC01F0FF0102F007029E
:1007400032B110F8013B013A83EA010313B1F8D149
:100750000020704701387047002D06BF354603382A
:10076000073815F0010F07D1013015F4807F02BF63
:10077000013015F4C03F0130F0BC0138704700BFB4
:1007800081F0004102E000BF83F0004330B54FEA42
:1007900041044FEA430594EA050F08BF90EA020FAF
:1007A0001FBF54EA000C55EA020C7FEA645C7FEA42
:1007B000655C00F0E2804FEA5454D4EB5555B8BF65
:1007C0006D420CDD2C4480EA020281EA030382EAD6
:1007D000000083EA010180EA020281EA0303362D68
:1007E00088BF30BD11F0004F4FEA01314FF4801C3B
:1007F0004CEA113102D0404261EB410113F0004F4D
:100800004FEA03334CEA133302D0524263EB430303
:1008100094EA050F00F0A780A4F10104D5F1200EA1
:100820000DDB02FA0EFC22FA05F2801841F10001FC
:1008300003FA0EF2801843FA05F359410EE0A5F1D0
:1008400020050EF1200E012A03FA0EFC28BF4CF001
:10085000020C43FA05F3C01851EBE37101F00045B7
:1008600007D54FF0000EDCF1000C7EEB00006EEBC4
:100870000101B1F5801F1BD3B1F5001F0CD349084E
:100880005FEA30004FEA3C0C04F101044FEA4452A5
:1008900012F5800F80F09A80BCF1004F08BF5FEA2C
:1008A000500C50F1000041EB045141EA050130BD0C
:1008B0005FEA4C0C404141EB0101013C28BFB1F51E
:1008C000801FE9D291F0000F04BF01460020B1FA69
:1008D00081F308BF2033A3F10B03B3F120020CDA3C
:1008E0000C3208DD02F1140CC2F10C0201FA0CF01A
:1008F00021FA02F10CE002F11402D8BFC2F1200C7F
:1009000001FA02F120FA0CFCDCBF41EA0C01904034
:10091000E41AA2BF01EB0451294330BD6FEA04047D
:100920001F3C1CDA0C340EDC04F11404C4F1200268
:1009300020FA04F001FA02F340EA030021FA04F37A
:1009400045EA030130BDC4F10C04C4F1200220FAD1
:1009500002F001FA04F340EA0300294630BD21FA0F
:1009600004F0294630BD94F0000F83F4801306BFD5
:1009700081F480110134013D4EE77FEA645C18BFC9
:100980007FEA655C29D094EA050F08BF90EA020F60
:1009900005D054EA000C04BF1946104630BD91EA58
:1009A000030F1EBF0021002030BD5FEA545C05D15B
:1009B0004000494128BF41F0004130BD14F580049A
:1009C0003CBF01F5801130BD01F0004545F0FE410E
:1009D00041F470014FF0000030BD7FEA645C1ABF43
:1009E000194610467FEA655C1CBF0B46024650EA7A
:1009F000013406BF52EA033591EA030F41F40021A6
:100A000030BD00BF90F0000F04BF0021704730B52B
:100A10004FF4806404F132044FF000054FF0000100
:100A200050E700BF90F0000F04BF0021704730B5C1
:100A30004FF4806404F1320410F0004548BF404296
:100A40004FF000013EE700BF42004FEAE2014FEAEB
:100A500031014FEA02701FBF12F07F4393F07F4FC6
:100A600081F06051704732F07F4208BF704793F0C9
:100A70007F4F04BF41F40021704730B54FF46074DC
:100A800001F0004521F000411CE700BF50EA0102DF
:100A900008BF704730B54FF000050AE050EA010288
:100AA00008BF704730B511F0004502D5404261EBF8
:100AB00041014FF4806404F132045FEA915C3FF439
:100AC000D8AE4FF003025FEADC0C18BF03325FEAD6
:100AD000DC0C18BF033202EBDC02C2F1200300FA87
:100AE00003FC20FA02F001FA03FE40EA0E0021FAAC
:100AF00002F11444BDE600BF70B54FF0FF0C4CF49A
:100B0000E06C1CEA11541DBF1CEA135594EA0C0F4B
:100B100095EA0C0F00F0DEF82C4481EA030621EA86
:100B20004C5123EA4C5350EA013518BF52EA0335C1
:100B300041F4801143F4801338D0A0FB02CE4FF073
:100B40000005E1FB02E506F00042E0FB03E54FF0A3
:100B50000006E1FB03569CF0000F18BF4EF0010E9B
:100B6000A4F1FF04B6F5007F64F5407404D25FEA97
:100B70004E0E6D4146EB060642EAC62141EA55514A
:100B80004FEAC52040EA5E504FEACE2EB4F1FD0C8C
:100B900088BFBCF5E06F1ED8BEF1004F08BF5FEA0A
:100BA000500E50F1000041EB045170BD06F00046BC
:100BB00046EA010140EA020081EA0301B4EB5C0469
:100BC000C2BFD4EB0C0541EA045170BD41F4801161
:100BD0004FF0000E013C00F3AB8014F1360FDEBF86
:100BE000002001F0004170BDC4F10004203C35DA62
:100BF0000C341BDC04F11404C4F1200500FA05F3E5
:100C000020FA04F001FA05F240EA020001F0004285
:100C100021F0004110EBD37021FA04F642EB0601FB
:100C20005EEA430E08BF20EAD37070BDC4F10C0425
:100C3000C4F1200500FA04F320FA05F001FA04F2E9
:100C400040EA020001F0004110EBD37041F10001D5
:100C50005EEA430E08BF20EAD37070BDC4F12005E0
:100C600000FA05F24EEA020E20FA04F301FA05F248
:100C700043EA020321FA04F001F0004121FA04F2F0
:100C800020EA020000EBD3705EEA430E08BF20EAC0
:100C9000D37070BD94F0000F0FD101F000464000FA
:100CA00041EB010111F4801F08BF013CF7D041EA7C
:100CB000060195F0000F18BF704703F00046520080
:100CC00043EB030313F4801F08BF013DF7D043EA51
:100CD0000603704794EA0C0F0CEA135518BF95EA07
:100CE0000C0F0CD050EA410618BF52EA4306D1D18E
:100CF00081EA030101F000414FF0000070BD50EAAD
:100D0000410606BF1046194652EA430619D094EA36
:100D10000C0F02D150EA013613D195EA0C0F05D120
:100D200052EA03361CBF104619460AD181EA030174
:100D300001F0004141F0FE4141F470014FF000002C
:100D400070BD41F0FE4141F4780170BD70B54FF0C7
:100D5000FF0C4CF4E06C1CEA11541DBF1CEA135547
:100D600094EA0C0F95EA0C0F00F0A7F8A4EB050429
:100D700081EA030E52EA03354FEA013100F0888020
:100D80004FEA03334FF0805545EA131343EA1263E9
:100D90004FEA022245EA111545EA10654FEA00269E
:100DA0000EF000419D4208BF964244F1FD0404F557
:100DB000407402D25B084FEA3202B61A65EB0305B3
:100DC0005B084FEA32024FF480104FF4002CB6EB70
:100DD000020E75EB030E22BFB61A754640EA0C00F0
:100DE0005B084FEA3202B6EB020E75EB030E22BF30
:100DF000B61A754640EA5C005B084FEA3202B6EB71
:100E0000020E75EB030E22BFB61A754640EA9C002F
:100E10005B084FEA3202B6EB020E75EB030E22BFFF
:100E2000B61A754640EADC0055EA060E18D04FEABD
:100E3000051545EA16754FEA06164FEAC30343EA5D
:100E400052734FEAC2025FEA1C1CC0D111F4801F2A
:100E50000BD141EA00014FF000004FF0004CB6E723
:100E600011F4801F04BF01430020B4F1FD0C88BFC2
:100E7000BCF5E06F3FF6AFAEB5EB030C04BFB6EBCD
:100E8000020C5FEA500C50F1000041EB045170BDC0
:100E90000EF0004E4EEA113114EB5C04C2BFD4EBED
:100EA0000C0541EA045170BD41F480114FF0000E71
:100EB000013C90E645EA060E8DE60CEA135594EAED
:100EC0000C0F08BF95EA0C0F3FF43BAF94EA0C0FF0
:100ED0000AD150EA01347FF434AF95EA0C0F7FF465
:100EE00025AF104619462CE795EA0C0F06D152EAB9
:100EF00003353FF4FDAE1046194622E750EA41069D
:100F000018BF52EA43067FF4C5AE50EA41047FF4AD
:100F10000DAF52EA43057FF4EBAE12E74FF0FF3C12
:100F200006E000BF4FF0010C02E000BF4FF0010CE3
:100F30004DF804CD4FEA410C7FEA6C5C4FEA430C5C
:100F400018BF7FEA6C5C1BD001B050EA410C0CBFAB
:100F500052EA430C91EA030F02BF90EA020F00200D
:100F6000704710F1000F91EA030F58BF994208BF74
:100F700090422CBFD8176FEAE37040F00100704731
:100F80004FEA410C7FEA6C5C02D150EA013C07D188
:100F90004FEA430C7FEA6C5CD6D152EA033CD3D0D3
:100FA0005DF8040B704700BF8446104662468C46CD
:100FB0001946634600E000BF01B5FFF7B7FF002800
:100FC00048BF10F1000F01BD4DF808EDFFF7F4FF29
:100FD0000CBF012000205DF808FB00BF4DF808EDB4
:100FE000FFF7EAFF34BF012000205DF808FB00BFD7
:100FF0004DF808EDFFF7E0FF94BF012000205DF8F9
:1010000008FB00BF4DF808EDFFF7CEFF94BF0120AD
:1010100000205DF808FB00BF4DF808EDFFF7C4FFA6
:1010200034BF012000205DF808FB00BF4FEA410CEF
:101030007FEA6C5C02D150EA013C0AD14FEA430CD2
:101040007FEA6C5C02D152EA033C02D14FF000000F
:1010500070474FF0010070474FEA410212F500124D
:1010600015D211D56FF47873B3EB625212D94FEAEF
:10107000C12343F0004343EA505311F0004F23FAD9
:1010800002F018BF404270474FF00000704750EA2E
:10109000013005D111F0004008BF6FF000407047EB
:1010A0004FF00000704700BF0348044B834202D05A
:1010B000034B03B118477047E8060020E8060020FC
:1010C000000000000548064B1B1AD90F01EBA301D5
:1010D000491002D0034B03B118477047E8060020BF
:1010E000E80600200000000010B5064C237843B944
:1010F000FFF7DAFF044B13B10448AFF3008001237C
:10110000237010BDE80600200000000000C20008A7
:1011100008B5054B1BB105490548AFF30080BDE894
:101120000840FFF7CFBF00BF00000000EC06002022
:1011300000C20008024A0349034800F0C9B800BFD2
:10114000000000209D1D0008100000200C4B41688D
:10115000994210B5044601D000F020FEA168094B69
:10116000994202D0204600F019FEE168064B9942F0
:1011700004D02046BDE8104000F010BE10BD00BFF6
:10118000040700206C070020D40700202DE9F84355
:10119000314A324C3249DFF8DC90DFF8DC80314FE5
:1011A0001160002504232946082204F15C00C4E9EB
:1011B00003352D4EA560C4E90055C4E905556566A3
:1011C00000F0F0F804F15800C4E90749C4E90987C0
:1011D000E66200F0B5F92946244B6367082204F162
:1011E000C400C4E91A55C4E91E552567C4F8CC509B
:1011F000C4F8805000F0D6F804F1680304F1C00090
:10120000C4F88430C4E92298C4E9247600F098F93F
:10121000174BC4F8DC30294604F596700822C4E95F
:101220003455C4E93855C4F8D850C4F83451C4F81A
:10123000E85000F0B7F804F1D003C4E93D87C4F8E2
:10124000F09004F59470C4F8FC60C4F8EC30BDE88C
:10125000F84300F075B900BF3C08002004070020E7
:1012600035110008791300089D13000809000100DA
:1012700012000200151300083913000810B50446C7
:101280000A4800F061F9636B23B9094B094A1B68EE
:10129000626323B1BDE81040044800F057B9FFF77E
:1012A00075FFBDE81040014800F050B94C0800201F
:1012B0003C0800204D110008014800F045B900BF6E
:1012C0004C080020014800F041B900BF4C08002044
:1012D0002DE9F8430746884616464FF00009D6E93F
:1012E0000154013D10D4A389012B08D9B4F90E3063
:1012F00001332146384602D0C04749EA0009013D82
:101300006B1C04F16804EED13668002EE7D1484624
:10131000BDE8F88310B50C46B1F90E1000F0BCF82A
:10132000002803DB236D0344236510BDA38923F448
:101330008053A38110BD00BF2DE9F0410C46B1F9E7
:101340000C101F46CB05054616460BD421F48051E0
:10135000A1813B46B4F90E1032462846BDE8F04163
:1013600000F0B0B8B4F90E100223002200F07EF8AD
:10137000B4F90C10EAE700BF10B50C46B1F90E1035
:1013800000F074F8B4F90C30421C0EBF23F4805303
:1013900043F480532065A38110BD00BFB1F90E1046
:1013A00000F052B8830730B547D0541E002A3ED013
:1013B000CAB2034601E0013C39D303F8012B9D0773
:1013C000F9D1032C2CD9CDB205EB05250F2C05EB5B
:1013D000054535D9A4F1100222F00F0C03F1100ECF
:1013E000E6444FEA121C1A46C2E90055C2E902550A
:1013F00010327245F8D10CF1010214F00C0F03EB1E
:10140000021204F00F0C13D0ACF1040323F0030319
:101410000433134442F8045B9342FBD10CF0030401
:101420002CB1C9B21C4403F8011BA342FBD130BD4F
:1014300064461346002CF4D1F9E703461446C0E78E
:101440001A46A446E0E700BF38B5074D002204461F
:1014500008462A6000F042FE431C00D038BD2B68CD
:10146000002BFBD0236038BD4008002038B50C4667
:10147000084D8446114620461A4600232B606446D8
:1014800000F034FE431C00D038BD2B68002BFBD08D
:10149000236038BD4008002038B50C46084D84460E
:1014A000114620461A4600232B60644600F026FEB3
:1014B000431C00D038BD2B68002BFBD0236038BD07
:1014C0004008002038B50C46084D84461146204699
:1014D0001A4600232B60644600F026FE431C00D011
:1014E00038BD2B68002BFBD0236038BD400800209E
:1014F00070B50F4B0F4DAB42A3EB050607D0B610EE
:10150000002455F8043B01349847A642F9D80AF064
:1015100077FE094D094B5E1BAB424FEAA60606D08B
:10152000002455F8043B01349847A642F9D870BD11
:1015300000D1000800D1000800D1000808D100083F
:10154000704700BF704700BF704700BF704700BFC3
:10155000024B13B1024800F005B8704700000000CC
:101560000D200008002301461A46184600F070BD01
:101570002DE9F84306460820894600F05BFDDFF8B8
:10158000A4800546304600F0FDFBD8F808305F68BF
:1015900027F00307A7F11104A4EB09042C44B4FBC2
:1015A000F5F4013C05FB04F4A54208DC00213046BB
:1015B00000F01AFDD8F808303B44984205D0304678
:1015C00000F0E6FB0020BDE8F8836142304600F001
:1015D0000BFD01300FD0114AD8F808303F1B47F0FF
:1015E00001075F60136830461B1B136000F0D0FBDF
:1015F0000120BDE8F8830021304600F0F5FCD8F862
:101600000820831A0F2BDADD43F001035360044BEB
:1016100002491B68C01A0860D1E700BF54080020C7
:10162000540100206001002000297CD02DE9F04108
:101630000C46804600F0A6FB54F8043C754FA4F11C
:10164000080523F001016818BE684268864222F04E
:10165000030200F08380DE07426000EB020C33D40B
:1016600054F8084CDCF804302D1B2144AC6807F119
:10167000080C644503F0010364D0D5F80CE0C4F80D
:101680000CE0CEF80840002B00F0818041F001030F
:101690006B600160B1F5007F22D27868CB0801222F
:1016A000490901338A40024357F833107A6007EB47
:1016B000C302083AC5E9021247F83350CD604046EC
:1016C000BDE8F04100F064BBDCF80430DB072BD54B
:1016D00041F00103B1F5007F44F8043C0160DCD324
:1016E000B1F5206F4FEA512353D28B0903F1390032
:1016F00003F13802C300F818FB580838984203D1A8
:1017000061E09B68984204D05A6822F003028A4242
:10171000F7D8D868C5E902308560DD604046BDE88D
:10172000F04100F035BB7047114407F1080C8368A5
:1017300063453FD0C268DA60936041F001036B609B
:101740006950A7E7002B5FD10A44D0E90213CB60B0
:10175000996042F001036B60AA50B0E7DB070A44CE
:1017600007D454F8083CED1A1A44D5E90213CB60AB
:10177000996042F001036B60274BBD601B68934288
:101780009DD8264B40461968FFF7F2FE97E71144B3
:10179000CDE7142B08D9542B1DD80B0B03F16F0088
:1017A00003F16E02C300A6E703F15C0003F15B02E4
:1017B000C300A0E741F00103C7E90455C5E902CC25
:1017C0006B6069507BE779689210012404FA02F299
:1017D0000A437A609EE7B3F5AA7F06D8CB0B03F1E4
:1017E000780003F17702C30085E740F25452934238
:1017F00006D88B0C03F17D0003F17C02C3007AE76D
:101800004FF47E737E2276E741F001036B60016046
:1018100055E700BF60010020580100208408002027
:101820002DE9F04F01F10B05162D83B0064623D8A4
:10183000102900F2AF8000F0A5FA1025182302202D
:10184000B74F3B44A3F108025C68944200F01E814C
:101850006368E268A16823F00303CA60234430464A
:1018600091605A6842F001025A6000F091FA08341F
:10187000204603B0BDE8F08F35F0070500F18A80FF
:10188000A94200F2878000F07DFAB5F5FC7FC0F038
:101890006E816B0A00F08280042B00F21D81AB097F
:1018A00003F1390003F1380EC3009D4F3B44A3F10F
:1018B000080C5C68A44507D10DE0002AE16880F2BD
:1018C000DF808C4507D00C46636823F003035A1B66
:1018D0000F2AF2DD7046DFF860823C69444500F073
:1018E000BC80636823F0030CACEB05030F2B00F303
:1018F0004281002BC7E9048880F22D81BCF5007F6E
:10190000D7F804E080F0C8804FEADC0101314FEAEB
:101910005C1C012303FA0CF357F83120A2604EEA55
:10192000030E07EBC103083BE360C7F804E047F888
:101930003140D46083104FF0010C0CFA03FCF445E5
:1019400032D81CEA0E0F08D120F003004FEA4C0CED
:101950001CEA0E0F00F10400F8D007EBC00AD646CF
:101960008146DEF80C300BE0596821F003014A1B78
:101970000F2A1C46DB6800F3BB80002A80F2DE8061
:101980009E45F1D109F1010919F0030F0EF1080E7E
:10199000E7D119E10C233360002469E74FF40073A9
:1019A00040204FF03F0E80E7BC68636823F00309D6
:1019B000A94503D3A9EB05030F2B51DC594B1B6839
:1019C000082003F1100804EB0903009300F032FB38
:1019D000554A13680133A844834605D008F1FF38FF
:1019E0008044434203EA08084146304600F0FCFACE
:1019F000B0F1FF3F4C4A824600F0D880009B834202
:101A000000F2D280494B186840440BF1FF31186056
:101A1000844640F0FC801AEA010F40F0F880D7F8C5
:101A200008A0C84448F00102CAF80420404B1968D5
:101A3000814238BF18603F4B1968814238BF186037
:101A4000544622F00308A845A8EB050301D30F2B49
:101A500006DC304600F09CF99EE7D7F804E069E721
:101A6000621943F0010345F0010565603046BA6034
:101A7000536000F08DF90834204603B0BDE8F08FC4
:101A8000A2682344D16030468A60EAE6DC68A3425B
:101A90007FF4DEAE02301EE7BCF5206F4FEA5C2219
:101AA0007BD3142A00F2128102F15C03DB005B326B
:101AB000F918FB580839994203D1ECE09B68994228
:101AC00004D05A6822F003026245F7D8D968C4E905
:101AD00002318C60DC602DE7142B6AD9542B00F2A4
:101AE000FE802B0B03F16F0003F16E0EC300DCE6EA
:101AF000D4F808C03046661945F001056560CCF899
:101B00000C30C3F808C042F00103C7E90466C6E917
:101B100002887360625000F03BF90834A8E600BF09
:101B20006001002084080020540100205408002097
:101B3000800800207C0800206801002021443046F5
:101B40004A6842F001024A6054F8082FD3609A6054
:101B500000F01EF98CE6A4443046DCF8043043F073
:101B60000103CCF8043000F013F9083480E6E808EB
:101B700005F1080364E6621943F0010145F001052F
:101B800065603046C7E90422C2E90288516044F822
:101B90000C3000F0FDF808346AE64FEA9C1202F1BE
:101BA0003903DB00383283E7BC4228D0BC68626866
:101BB00047E703F15C0003F15B0EC30075E65AF8DA
:101BC0000839534540F0D98010F0030F00F1FF3081
:101BD000F5D17B6823EA0C037B604FEA4C0C9C45F3
:101BE0003FF6E2AEBCF1000F04D1DDE64FEA4C0C4B
:101BF00009F104091CEA030FF8D04846ADE6604B32
:101C0000186808EB000C0BF1FF31C3F800C0106836
:101C100001306ED0009AAAEB020262441A601AF0F8
:101C20000702CDE9002340D0C2F108029244D0441B
:101C300008EA01005A44121A02EA010B59463046DA
:101C400000F0D2F9421C019B6FD0A0EB0A0000EB20
:101C50000B081868C7F808A048F001025844BC42B5
:101C6000CAF8042018603FF4E1AEB9F10F0F43D970
:101C70006168A9F10C0222F0070201F00101114391
:101C800061604FF0050CA1180F2AC1E901CC54D8AE
:101C9000DAF80420CAE692104FF0010C0CFA02F2B6
:101CA0004EEA020EC7F804E011E70AEB08020A4008
:101CB000ABEB020202EA010B5946304600F094F900
:101CC000431C019BC1D1DDF800B0C2E7542A17D8EC
:101CD0004FEA1C3202F16F03DB006E32E8E6B3F527
:101CE000AA7F17D8EB0B03F1780003F1770EC3003E
:101CF000DBE5C2F800A092E70123CAF80430A8E6A9
:101D0000B2F5AA7F24D84FEADC3202F17803DB0077
:101D10007732CDE640F25452934224D8AB0C03F113
:101D20007D0003F17C0EC300BFE5009A083A9044A1
:101D3000A8EB0A084FF0000B8BE7304604F10801CE
:101D40000093FFF771FC009BD7F808A018689FE785
:101D500040F254539A420CD84FEA9C4202F17D0360
:101D6000DB007C32A4E64FF47E737F204FF07E0EC2
:101D70009BE54FF47E737E229AE67B682DE700BFD9
:101D8000540800200148FFF7DFBB00BF44080020D3
:101D90000148FFF7DBBB00BF4408002070B50029F5
:101DA0003FD006460C4610B1436B002B3CD0636E0F
:101DB000B4F90C20DD0732D4900538D521463046E1
:101DC00000F04CF8E36A054633B1E16930469847C4
:101DD0000028B8BF4FF0FF35A3891A0639D4216B0C
:101DE00041B104F14003994202D03046FFF71CFC98
:101DF00000232363616C21B13046FFF715FC0023FB
:101E00006364FFF759FA636E0022DB07A2811CD5D9
:101E1000A06DFFF797FBFFF755FA284670BD002A23
:101E2000CCD10025284670BDFFF728FABFE7A06D8A
:101E3000FFF78AFBB4F90C30002BBFD1636ED907D2
:101E4000EFD4A06DFFF782FBEBE7A06DFFF77EFB01
:101E5000DEE721693046FFF7E7FBC0E7B1F90C2068
:101E60002DE9F04116070C4680464ED4496842F4ED
:101E700000630029A38163DDA56A002D42D0002103
:101E800012F48052D8F80060C8F80010E16964D1FB
:101E900001234046A847451C02466ED0B4F90C30D9
:101EA000A56AE169580705D56368D21A236B0BB19F
:101EB000E36BD21A00234046A847431C4FD1D8F801
:101EC0000010B4F90C301D2940D8314ACA40D70758
:101ED0003CD52269226023F40062A281DD044FF028
:101EE0000002626001D5002945D0216BC8F800606E
:101EF00041B104F14003994202D04046FFF794FB00
:101F0000002323630020BDE8F0810E69002EF9D084
:101F10000D680E6092070CBF4B690023AD1B8B60F0
:101F20000BE02B463246E169676A4046B847B0F19C
:101F3000000CA5EB0C05664406DD002DF1DCE1E7A5
:101F4000E16B002998DCDDE7B4F90C3043F0400385
:101F5000A3814FF0FF30BDE8F081226DA2E7B4F914
:101F60000C302269226023F40062A281DB044FF06E
:101F700000026260B9D52065B7E7D8F80030002BC1
:101F80008CD01D2B01D0162BDED1C8F80060B9E72C
:101F90000100402038B50C46054608B1436B03B339
:101FA000B4F90C0088B1636EDB0701D481050FD54D
:101FB00028462146FFF752FF636EDA07054602D432
:101FC000A3899B0508D5284638BD0546284638BD57
:101FD000A06DFFF7B9FAEBE7A06DFFF7B7FA284657
:101FE00038BDFFF74BF9DBE738B5074D0022044653
:101FF00008462A6000F08AF8431C00D038BD2B68E0
:10200000002BFBD0236038BD4008002038B5074DB9
:10201000074C2C1BA41005D0013C55F8043D9847F3
:10202000002CF9D1BDE838400AF0F0B80CD1000816
:1020300008D10008082802D14FF48050704708B535
:1020400000F046F8162303604FF0FF3008BD00BFD4
:102050002DE9F8431B4D0646286898460F469146E1
:10206000FFF772FA184B1C681CB3286865681F2DAF
:1020700022DC4EB96B1C0235636044F82570FFF713
:1020800065FA0020BDE8F88304EB85010123C1F85F
:102090008890D4F88821AB401A43022EC4F88821D6
:1020A000C1F80881E6D1D4F88C211A43C4F88C21F8
:1020B000E0E7064C1C60D8E7FFF748FA4FF0FF3026
:1020C000E0E700BF500100205008002088080020F1
:1020D000014B1868704700BF0C000020024B5822CB
:1020E0001A604FF0FF30704740080020024B582222
:1020F0001A604FF0FF30704740080020024B582212
:102100001A604FF0FF30704740080020044A05492C
:102110001368002B08BF0B46184410601846704720
:10212000180A002050F40120024B58221A604FF088
:10213000FF30704740080020FEE700BF564AD2F843
:10214000883043F4700382B0C2F88830534BD3F820
:10215000002842F00102C3F80028D3F800289007B5
:10216000FBD5D3F8082842F08002C3F808280023E2
:102170000193019B4F2B3DD9484BD3F8082842F0DF
:102180009002C3F8082800220192019A4F2A34D9FC
:10219000D3F8082822F00302C3F80828D3F800284F
:1021A00022F0847222F48032C3F80028D3F8002889
:1021B00022F48022C3F800280022C3F80828D3F8AC
:1021C00008183749C3F80418C3F80C28D3F80028B6
:1021D00042F48032C3F80028304B4FF6FF72D3F838
:1021E0000018890301D4013AF9D1D3F800289203E9
:1021F00006D4FEE7019B0133BAE7019A0132C3E737
:10220000D3F8402842F08052C3F84028254A11688C
:1022100041F440411160D3F80818C3F80818D3F806
:10222000081841F40041C3F80818D3F8081841F41D
:10223000A051C3F808181C49C3F80418D3F80018B3
:1022400041F08071C3F800181449D1F800389B019F
:10225000FBD5136843F480331360124B5A68D003E4
:10226000FCD51A6842F400321A605A689103FCD512
:102270000A4BD3F8082822F00302C3F80828D3F841
:10228000082842F00202C3F80828D3F808281207E9
:10229000FBD502B0704700BF00ED00E00030024007
:1022A000103000240070004019644009830903F1D4
:1022B000804303F50E3300F01F00196801228240AD
:1022C0000A431A607047830903F1804303F50E3314
:1022D00000F01F001A680121814022EA01021A6001
:1022E0007047FFF7E3BFFFF7EEBF0000044AD2F8E4
:1022F000083823F003030343C2F80838704700BFCF
:1023000000300240044AD2F8083823F0F0030343B7
:10231000C2F80838704700BF00300240044AD2F8C3
:10232000083823F4E0530343C2F80838704700BF6D
:1023300000300240044AD2F8083823F460430343D3
:10234000C2F80838704700BF0030024070B505463B
:102350001848049ED0F88008002826DA10F0804F34
:102360000CBF052007208C1E3D2C20D84030904209
:102370001DD8B2F5FA7F1AD8082B18D84FF4AA74D2
:10238000DC4014F001000FD0B01E0D280FD845EA34
:10239000066529435B0841EA8212013B42EA034396
:1023A000044A0120C2F8043870BD0020DBE7002099
:1023B000FAE700BF00300240FFF778BFF0B5354BB9
:1023C00089B0044604AD03F110061F461868596829
:1023D0002A4603C20833B3421546F7D138697168FB
:1023E0002D4A6B4603C303C3D2F80838C3F38103F5
:1023F000012B3FD0022B3FD1D2F80408D2F80418A9
:10240000D2F80438D2F80428244DC3F3014312F45F
:10241000800FC1F3881103F10103214A00F03F004E
:102420004FEA430318BF2A46B2FBF0F24A43B2FB1D
:10243000F3F01949D1F80838D1F80828C2F38222FC
:1024400020326A44C3F3031312F8205CD1F8082841
:1024500020336B44C2F34232203213F8103C6A44FA
:1024600020FA03F312F8182C032C07D8DFE804F045
:1024700007090B0E0948DCE70948DAE7002009B034
:10248000F0BD1846FBE723FA05F0F8E723FA02F05F
:10249000F5E700BF18C200080030024040787D0117
:1024A0000024F400830903F1804303F50E3300F0A8
:1024B0001F001B6823FA00F000F0010070470000C5
:1024C0001C2808B561D012D8182855D004D898B364
:1024D000102822D0002008BD1A28FBD12F4A1B202B
:1024E000FFF7E0FF08B9013AF9D11B201EE0B0F573
:1024F000E85F36D043F21003984227D0B0F5E05F92
:10250000E8D16FF0704241F60140FFF7CBFF08B908
:10251000013AF8D141F6014008E04FF6FF72112070
:10252000FFF7C0FF08B9013AF9D11120FFF7BAFF50
:10253000003818BF0120CEE74FF4A0620120FFF75A
:10254000B1FF08B9013AF9D10120EFE7134A43F28C
:102550001100FFF7A7FF08B9013AF8D143F21100C3
:10256000E4E70E4A41F60150FFF79CFF08B9013A33
:10257000F8D141F60150D9E7084A1920FFF792FF38
:1025800008B9013AF9D11920D0E7044A1D20FFF714
:1025900089FF08B9013AF9D11D20C7E7FFFF0F00F5
:1025A0002DE9F0430568C46800264FF0010E4FF096
:1025B00003080EFA06F71F420DD0770008FA07FC51
:1025C00001FA07F925EA0C0524EA0C0402FA07F7D8
:1025D00049EA05053C430136102EEAD10560C46086
:1025E000BDE8F083012941680CBF19439943F0B558
:1025F0004160816800240126032706FA04F51D4284
:1026000007D0650007FA05FC21EA0C0102FA05F57E
:1026100029430134102CF0D18160F0BD81617047F5
:102620008162704703690B4214BF0120002070478C
:10263000F0B5066A456A00234FF0010C4FF00F0E0B
:102640000CFA03F4144207D09C000EFA04F726EAB1
:10265000070601FA04F426430133082BF0D10023C6
:102660004FF0010C4FF00F0E03F108040CFA04F4C4
:10267000144207D09C000EFA04F725EA070501FA78
:1026800004F425430133082BEED106624562F0BD08
:10269000C162704782B0002301930190019B0BB986
:1026A00002B07047019B013B0193F7E780285ED0A1
:1026B00015D808280CD8002800F089800138072890
:1026C00000F28580DFE800F02027832E83838335A6
:1026D00020283CD0402843D0102831D07047B0F596
:1026E000006F60D009D8B0F5007F4ED0B0F5806F94
:1026F00052D0B0F5807F41D07047B0F5805F59D09F
:10270000B0F5005F5DD07047314B1A6842F00102AE
:10271000C3E9002170472E4B1A68996042F002020B
:102720001A6070472A4B1A68D96042F004021A6096
:102730007047274B1A68196142F008021A60704707
:10274000234B1A68596142F010021A607047204BFF
:102750001A6821F0800142F020021A6099617047E6
:102760001B4B1A68D96142F040021A607047184B3F
:102770001A68196242F080021A607047144B1A6896
:10278000596242F480721A607047114B1A6899625C
:1027900042F400721A6070470D4B1A68D96242F415
:1027A00080621A6070470A4B1A68196342F400622B
:1027B0001A607047064B1A68596342F480521A60D7
:1027C0007047034B1A68996342F400521A607047CD
:1027D0001C0A0020074B1A6842F001021A60064AE0
:1027E0001968C90701D5013AFAD11868C04300F049
:1027F0000100704700900240FFFF0400034B8A88ED
:10280000C25004330A68C250704700BF4080024083
:1028100000F01F0101228A4041F21C01B1EB901F20
:102820004FEA901304D10749CB691343CB6170473A
:1028300003F1804303F52033196821EA02021A608C
:10284000704700BF00900240054A136843F004033C
:10285000136002F58052936943F00203936170475D
:102860000080024030B5124D04462869920120F4E0
:102870007F4002F4F86220F0C3000243C90289B22B
:1028800022430A43022C04BF1988696142F0010205
:102890002A610749074A0869C00701D5013AFAD1F8
:1028A0000A69D24302F001000CB94A691A8030BDAE
:1028B00000800240FFFF040037B5264D01202C693F
:1028C000FFF77CFD244B254A0344934224F01C046B
:1028D0001FD244F008044FF400432C610022ADF8ED
:1028E000063001210DF106030220FFF7BBFF50B3B4
:1028F0001B480022FFF7CEFE01210DF10603104612
:10290000FFF7B0FFF8B1BDF80600C043C0F3C03018
:102910001AE0144B144A0344934202D844F00C04C6
:10292000D9E7124B124A03449342D4D3114B124AB3
:102930000344934202D844F00404CCE70F4B104AFE
:102940000344934202D9002003B030BD44F0100488
:10295000C1E700BF0080024000D3CEFEC0E1E4002A
:10296000FFFF040040F1E9FD3F787D0100796CFC38
:10297000005A6202001F0AFA7FF0FA02802E0FF757
:10298000804A5D05F7B5002304460D461646ADF8AE
:102990000630FFF791FF002832D0394B394A1968C9
:1029A0000A401A6000225A609A60DA60996921F040
:1029B000BE010904090C41F0800199613249DA61D4
:1029C0008869324B034043F008738B610B68304BCE
:1029D0000B60012C1ED0E308610801F4005103F4E0
:1029E00080730B43ADF8063001210DF10603022080
:1029F000FFF738FF58B16FF07F40FFF74BFE5EE006
:102A00002448FFF747FEFFF757FF0028C5D10020F5
:102A100003B0F0BD204F1446012211460DF106030C
:102A20000020FFF71FFFBDF8062002F00402ADF8FA
:102A30000620013412B9BC42EED1E8E7BC42E6D030
:102A40004FF48052ADF80620012100220220FFF74A
:102A500009FF0028DBD0104F0024012211460DF1A0
:102A600006030020FFF7FEFEBDF8062002F020025C
:102A7000ADF8062001348AB9BC42EED1C7E700BFE9
:102A8000008002400F8130FD00900240233FDEF8BD
:102A90000060C102FFFF8F00FFFF0400BC42B6D000
:102AA000012110220020FFF7DDFEBDF80630C3F340
:102AB000800499074FEAC42401D444F48044694B4C
:102AC0001A6822F4B04214436A051C600BD51A68D8
:102AD00042F480621A60644A936905F0806523F0CD
:102AE00080631D4395615F4843681E435F4B4660AA
:102AF0001A68D70713D501685A685D4C21F0007138
:102B0000144021F080012143016000F580509208BB
:102B1000816902F0C00221F0C0010A4382611A6893
:102B2000960708D5504998680A6822F0E06222F4B6
:102B3000803202430A601A68550708D54A49D868A6
:102B40000A6822F47E0222F47C5202430A601A6868
:102B5000140708D5444918690A6822F4404222F053
:102B6000020202430A601A68D00606D53E49414A6D
:102B700088690240586902438A611A68910611D532
:102B800039489A6981693C4C21F08071144021F0E8
:102B9000040121438161016802F0800221F080017B
:102BA0000A4302601A68520606D52E49D869CA69D6
:102BB0006FF310020243CA611A68170617D5294C31
:102BC0001A6AA06920F0BE0022F47F410004000CC4
:102BD00021F0410101432448A161D0F88010120A7C
:102BE00021F0770102F077020A43C0F880201A68CA
:102BF000D60542BF1B4A596A91601A68950542BFC3
:102C0000184A996AD1601A68540508D51549D86AD6
:102C10004A6822F4FB6222F0060202434A601A6804
:102C2000100508D50F49186B0A6822F4913222F07A
:102C3000700202430A601A68D10406D50949586B2C
:102C40000A6822F4400202430A601A68920401D41E
:102C50000120DDE603499B6B0A6822F460221343DE
:102C60000B60F5E700800240009002401C0A002043
:102C700080000002E73FDEFD04000001084A93697E
:102C800043F480139361074B906910F4801003D0D4
:102C9000013BF9D14FF48010B0FA80F04009704741
:102CA00000900240FFFF0400064A08B5136843F095
:102CB00008031360FFF7E2FF034A936943F40053EC
:102CC000936108BD008002400090024008B5FFF704
:102CD000EBFFBDE80840FFF7B7BD0000024A93696B
:102CE00003439361704700BF00900240084B0022ED
:102CF000C3E90022C3E90222C3E90422C3E9062290
:102D0000C3E90822C3E90A22C3E90C229A63704787
:102D10001C0A002008B540F21940FFF7E2FA40F221
:102D20001940FFF7E0FABDE80840FFF7DFBF0000F9
:102D300008B52D4B984250D017D8A3F53053984280
:102D400044D008D8A3F5006398422AD003F58063E5
:102D500098422DD008BD254B9842FBD140F6140077
:102D6000FFF7BFFA40F6140017E0214B98420ED04F
:102D700003F58063984222D0A3F518439842E9D125
:102D800040F61F00FFF7ADFA40F61F0005E040F6E1
:102D90000410FFF7A6FA40F60410BDE80840FFF75C
:102DA000A2BA40F61100FFF79CFA40F61100F4E7D2
:102DB00040F61200FFF795FA40F61200EDE740F6F4
:102DC0000510FFF78EFA40F60510E6E740F613000F
:102DD000FFF787FA40F61300DFE740F61E00FFF723
:102DE00080FA40F61E00D8E700780040005000400E
:102DF0000010014038B51E4B984204460D462ED0B7
:102E000021D8A3F53053984229D01AD8A3F50063EE
:102E1000984224D003F580639C4220D00020E268D1
:102E200012044FEA55031CD503EB4003B3FBF5F145
:102E3000C1F3420321F00F010904090C0B43A36005
:102E400038BD0C4BE8E70C4B20F480629A4202D06C
:102E5000A3F51443E0E70320FFF7B0FADFE7022011
:102E6000FAE7C118B1FBF5F189B2A160E8E700BF4C
:102E7000007800400050004000100140C36823F477
:102E8000C063C360C3680B43C3607047C36823F467
:102E90008053C360C3680B43C3607047036923F466
:102EA0004053036103690B4303617047C36843F4F4
:102EB0000053C3607047C36823F008030B43C3602B
:102EC0007047C36823F004030B43C3607047C1F32A
:102ED0000801416070474068C0F3080070478B09E3
:102EE00001F01F011858C84000F00100704710B5EC
:102EF0008C090122235801F01F018A4023EA0203B2
:102F0000235010BD8A0910B501F01F011458012388
:102F10008B402343135010BDC1F3891310B51C58C7
:102F20008B0D1A58C1F30440012303FA00F010403E
:102F300006D001F01F018B40234214BF0120002066
:102F400010BD10B58C0D01222358C1F304418A40F5
:102F500023EA0203235010BD234B30B51546DA682F
:102F600002F4E062B2F5E06F32D0DA6802F4E062B7
:102F7000B2F5C06F2FD0DA6802F4E062B2F5A06F4C
:102F80000DD0DA6802F4E062B2F5806F26D0DA681C
:102F900002F4E062B2F5407F23D0144ADA600223E3
:102FA0001C46C3F104030F22DA40C4F10404A1401B
:102FB0002A400A430E4912010B18D2B283F80023AB
:102FC0004209012300F01F00834041F8223030BD48
:102FD00004230024E5E703230124E2E7012303247B
:102FE000DFE700230424DCE700ED00E00005FA053C
:102FF00000E100E0044AD2F8043823F4000303435C
:10300000C2F80438704700BF00300140044AD2F8CB
:10301000003C23F00F030343C2F8003C704700BF9D
:1030200000300240064BD3F8102C002ABFBF054ADF
:10303000C3F8042C02F18832C3F8042C704700BF97
:103040000030024023016745034AD2F8103C43F0A8
:103050000043C2F8103C704700300240024A136837
:1030600043F4807313607047007000400E4A0F49AC
:10307000D2F8FC3043F08073C2F8FC300C4B1A6875
:1030800022F001021A6000225A601A6842F001021E
:103090001A60084A1268B2FBF1F242435868596854
:1030A000091A8A42FBD8704700ED00E040420F0049
:1030B000001000E06805002013B51020FFF77CF930
:1030C0001020FFF7FDF90128FAD10823174C0093CF
:1030D0004FF4C872022319214FF48000FFF736F92C
:1030E000D4F8040880B2FFF767F9D4F8040880B276
:1030F000FFF7E6F90128F8D10020FFF703F94FF4B4
:10310000A050FFF70BF94FF40040FFF713F9FFF75A
:1031100089FF0520FFF77AFFFFF796FF0220FFF7F0
:10312000E5F8034B034A1A6002B010BD00300240BC
:103130006805002000C2EB0B08B54FF44060FFF7B4
:10314000B5F840F60140FFF7B1F840F60240FFF74E
:10315000ADF840F60340FFF7A9F840F60440FFF74A
:10316000A5F840F60540FFF7A1F840F60640FFF746
:103170009DF840F60740FFF799F840F60840FFF742
:1031800095F841F20E10FFF791F841F21C00FFF79D
:103190008DF8BDE8084041F20E10FFF787B838B54A
:1031A00004460025A54200D138BD4FF47A70FFF7E0
:1031B0005DFF0135F6E7000010B50B4C40F602400C
:1031C000FFF774F82046402300220121FFF7E8F9B9
:1031D0002046002140230222FFF704FA2046402126
:1031E000BDE81040FFF71CBA00080240014840212A
:1031F000FFF74EBA00080240F0B5044685B04FF420
:103200004060002C5FD1FFF751F840F60140FFF716
:103210004DF840F60240FFF749F840F60640FFF748
:1032200045F840F61940FFF741F841F20E10FFF75C
:103230003DF89548862322460221FFF7B1F98623FF
:10324000914802222146FFF7CDF98F4886220B21B3
:10325000FFF7EEF98D484FF4605322460221FFF745
:103260009FF94FF46053894802222146FFF7BAF9CB
:1032700086484FF460520B21FFF7DAF98448322375
:1032800022460221FFF78CF981483223022221468F
:10329000FFF7A8F97E4832220B21FFF7C9F94FF456
:1032A0000000FFF7A7FEFFF735FDFFF793FA0028B0
:1032B00057D1784BD5227849784803F0C3FB0024D6
:1032C000204605B0F0BDFEF7F1FF40F60140FEF7E5
:1032D000EDFF40F60240FEF7E9FF40F60640FEF73C
:1032E000E5FF40F61940FEF7E1FF41F20E10FEF750
:1032F000DDFF65488F2300220221FFF751F98F235C
:10330000614802220021FFF76DF95F488F220B21EF
:10331000FFF78EF95D4843F6031300220221FFF701
:103320003FF943F60313594802220021FFF75AF9E7
:10333000564843F603120B21FFF77AF954483E230F
:1033400000220221FFF72CF951483E2302220021DE
:10335000FFF748F94E483E220B21FFF769F900209C
:103360009FE700224FF480610120FFF70BFB10B9AB
:103370004B4BDF229FE708210420FFF797F901213B
:103380001020FFF793F947490020FFF737FA464925
:10339000464800230C464FF480171E46052501338E
:1033A000B3FBF5F202EB82029A1A04EB0212052B30
:1033B0008860C1E90076CA6000F2F45001F11001A2
:1033C000EDD13B493B4D00200E464FF0004C44F2FE
:1033D000F4570130B0FBF3F202EB8202821A06EBE3
:1033E000021205288D60C1E900C7CA6005F2F455D4
:1033F00001F11001EDD1304B3048DE601C61FFF768
:103400006DFC2F48FFF704FA2E4B502283F83D2322
:103410004FF000525A60FFF759FC00F0BDF9044626
:1034200010B9294BFB2246E71E2503A800F04EF9F0
:10343000E0B19DF80C30CBB1244B9DF80E10244820
:1034400001221A70234B9DF80D201A70224B19701F
:10345000224B002918BF0346CDE900230E49204B1B
:10346000204840F2091203F0EDFA29E76420FFF743
:1034700096FE013DD9D11C4B07491C484FF4887278
:1034800003F0E0FA1CE700BF000002400004024025
:10349000000802403AC200085EC2000857C4000893
:1034A00078C200086C050020B40A0020C82800205B
:1034B000640A0020040B0020009002400400000178
:1034C0001607040000E100E097C200085A0A002035
:1034D00030C20008590A0020580A002035C20008EE
:1034E000B5C20008BDC90008E1C200080FC300084A
:1034F000F8B5002837D04B1E9BB240F2F3529342EE
:1035000031D81A4D1A4E2B681F01F259002A23DBBD
:10351000184C40F2F45202FB0344013800220132FD
:1035200092B210F801CF04F801CB9142F7D1F21911
:1035300001335160104AF2510522B3FBF2F202EB63
:1035400082029B1A0D4A2B60536913F0020301D0CB
:10355000012009E05360FBE7094B0A490A484FF490
:10356000947203F06FFA0020F8BD00BF600A0020DB
:10357000B40A0020C8280020000010F0009002408B
:1035800011C300085EC200080FC300082DE9F7430D
:1035900020B319B32B4E2C4CD6F800C04FEA0C15B3
:1035A00004EB0C176259002A18DB0CF10108C2F376
:1035B0000D4E0523B8FBF3F303EB8303A8EB0308DD
:1035C0000EF1FF3940F2F35399450BD94FF0004308
:1035D000635144F2F4537B60C6F80080002003B0CE
:1035E000BDE8F0834CF208031A4208D00092174B52
:1035F0001749184840F2651203F024FAE6E7164A24
:1036000040F2F453714503FB0C2288BF1FFA8EF180
:10361000431E0020013080B212F8017B03F8017FC5
:103620008142F7D163194FF00042625144F2F452E3
:103630005A600A4AC6F80080536913F4807308BFC1
:103640009360CCE75C0A0020640A00202AC30008CB
:103650005EC200080FC30008040B00200090024067
:1036600037B5054601A80C4600F030F80E4BB8B14E
:103670009DF80420A2B101221A700C4A9DF8051091
:1036800011700B4A9DF80610117015B1074A127897
:103690002A7014B1064A12782270187803B030BD2F
:1036A00000221A70F1E700BF5A0A0020590A0020D0
:1036B000580A0020044A431E053012F8011B03F883
:1036C000011F8342F9D170476C05002037B50446CD
:1036D00058B100210DF1060301220846FFF7C2F898
:1036E0000128054604D000232370002003B030BD1C
:1036F000BDF806305B07F6D500210DF106031F2249
:103700000846FFF7AFF8012805D0642325706370E1
:10371000A5700120EAE7BDF80630207013F0040F11
:103720000CBF0A226422C3F3C0036270A370F0E7E7
:1037300010B5104C40F60340FEF7B8FD20460823B4
:1037400000220121FEF72CFF00221146082320460B
:10375000FEF748FF08212046FEF762FF0120FFF731
:103760001EFD20460821FEF759FFBDE810406420E9
:10377000FFF715BD000C024007B5ADF806200DF1AE
:1037800006030A4601460220FFF76CF8431E584222
:10379000584103B05DF804FB13B5FFF7C9FF0021E2
:1037A0000DF1060302220846FFF75CF801280446E3
:1037B0000CD1BDF80630072B08D100214FF49052F0
:1037C0000846FFF7D9FF204602B010BD0020FBE7F6
:1037D00070B500210446ADF5BF6D40F2F45044B918
:1037E00001A8FFF785FE20BB134B1449144897220C
:1037F00007E063890B44834217DD124B0F491248DF
:10380000882203F01FF96FF001000DF5BF6D70BD48
:103810009AB26568AD5CB554013362899DB2AA4223
:10382000F6D81144246889B2D9E701AA00235618B2
:10383000F3E72046E9E700BF93C3000876C300081A
:103840000FC3000854C3000857C40008084609B154
:10385000FFF7BEBF6FF00F007047000030B5ADF24C
:10386000FC5D40F2F45101A8FFF790FE054668B1F7
:1038700001464FF4C172002001F03EFF044650B9EA
:103880000A4B0B490B48B52203F0DCF80024204614
:103890000DF2FC5D30BD2A4601A902F01FF8002898
:1038A000F5D0204601F0FDFEF0E700BFB1C30008EF
:1038B00076C300080FC3000870B5054686B0072020
:1038C00001F014FD044648B92748284B2849322204
:1038D00003F0B8F84FF0FF3006B070BD254B6B61B8
:1038E000254BAB6140F2DC53AB850E2385F83530B8
:1038F00046F665636862EB860020FFF77DFC0646AE
:1039000060B91E4B1A4918485B2203F09BF8204609
:1039100001F08AFC6E626FF00B00DDE72046FFF7D6
:10392000C9FE062385F83430621D631E2D3513F859
:10393000011F05F8011F9342F9D10123A371637997
:10394000059323790493E3780393A3780293637830
:10395000019323780A48009305490A4B6B2203F030
:1039600071F80020B8E700BF57C40008D4C30008AE
:1039700076C30008296500084D380008FEC300081A
:10398000BDC9000822C4000837B5154A13680133C1
:10399000B3F57A7F044606D21360FFF75FFF054652
:1039A000A0B903B030BD00230DF107010DF10600F1
:1039B0001360FFF755FE94F8353020B143F004034F
:1039C00084F83530E9E703F0FB03F9E72369214682
:1039D00098470028E1D0284601F063FEDDE700BFEC
:1039E0008C46002000F084BA38B5324C054641F2CE
:1039F0000410FEF75BFC4FF44060FEF757FC2046D6
:103A00004FF4007301220221FEF7CAFD4FF4007348
:103A1000204602220021FEF7E5FD20464FF4007209
:103A20000721FEF705FE20464FF4806301220221A4
:103A3000FEF7B6FD4FF48063204602220021FEF718
:103A4000D1FD4FF4806207212046A4F57044FEF7B3
:103A5000EFFD2046FFF76CF929462046FFF7CAF92B
:103A600020460021FFF70AFA20460021FFF70EFA50
:103A700020460021FFF712FA204640F20531FFF7F9
:103A800041FA002204212520FFF766FA2046FFF7BD
:103A90000DFA20460821FFF70EFA20460421FFF711
:103AA00010FABDE83840044904484FF4806203F03E
:103AB00003B800BF00000240A0460020904600204E
:103AC00070B50C4E04464518AC4207D1094C06218E
:103AD0002046FFF704FA0028F9D070BD05480721F9
:103AE000FFF7FDF90028F9D014F8011B3046FFF765
:103AF000EEF9E9E70010014038B50C4D441E14F80A
:103B0000013F3BB9094C06212046FFF7E8F90028A0
:103B1000F9D038BD05480721FFF7E1F90028F9D0B1
:103B200021782846FFF7D3F9E9E700BF00100140EC
:103B30000146014802F0D6BF9046002008B50F4963
:103B40000F48FFF7E9F901280AD10D48FFF7C3F93B
:103B5000C1B20C4802F0B6FF08490948FFF7F1F975
:103B600007480321FFF7BBF9012805D1BDE808404C
:103B700003480321FFF7BBB908BD00BF05030500DB
:103B800000100140904600200A44401A914200D1A2
:103B90007047435C01F8013BF8E708B500F09CFC76
:103BA000012803D0BDE8084001F0E0B808BD0000DE
:103BB00007494FF0E0234FF080520868012800D8F1
:103BC000FEE7C3F8042DBFF34F8FBFF36F8FF4E709
:103BD000104B0020064A13681968064B19B94FF0BC
:103BE000FF321A6070471268D2681268F9E700BFA6
:103BF000E44A0020A84A0020174B2DE9F0411C6838
:103C0000164B174D1F68174B0646D3F800802868DF
:103C1000043000F04DFE40B92A681349D06A0B68A1
:103C20000122824023EA02030B602B682968A41951
:103C30005C6001F1040104D34046BDE8F04100F0AE
:103C400020BE384600F01DFE084B1A68944238BF6B
:103C50001C60BDE8F08100BFC44A0020E44A002097
:103C6000B04B0020E04A0020C04A0020A84A0020B3
:103C70002DE9F84F9500814628460A9F0E4690464A
:103C80009A4601F04FF9834618B94FF0FF30BDE86E
:103C9000F88F5C2001F046F90446002800F0A1806E
:103CA0005C220021FDF77EFBC4F830B02A46A52136
:103CB0005846FDF777FB236B6EB1721E04F133019A
:103CC0000F3612F8010F01F8010F08B1B242F8D116
:103CD000002284F84320072F08D94FF0400383F3D4
:103CE0001188BFF36F8FBFF34F8FFEE7043D261D92
:103CF0001D44E762E764304600F0C0FD25F007058B
:103D000004F11800C7F1080700F0B8FD2846246147
:103D1000A76164625246494600F0DEFF2D1AB8EBF7
:103D2000A50F206008D84FF0400383F31188BFF33C
:103D30006F8FBFF34F8FFEE70B9B03B11C6000F04A
:103D4000E1FF354B354F1A68DFF8F08001321A6019
:103D50003D68002D49D13C601B68012B19D1C1463B
:103D60004846013500F07FFD082D09F11409F7D10F
:103D7000DFF8CC902A4D484600F075FD284600F04B
:103D800072FD284800F06FFD274BC3F80090274BC9
:103D90001D60274A2749136808680133636413606C
:103DA000E36A01229A4002430A601422534308EB5B
:103DB00003014A68A2609068E0604660966058F827
:103DC00003206161013248F8032000F0BBFF1A4B69
:103DD0001B6823B13B68DA6AE36A9A4210D3012078
:103DE00055E7584601F068F94FE7134B1A68E36A44
:103DF000002ACED13A68D26A9A4298BF3C60C8E79E
:103E00004FF0E0234FF08052C3F8042DBFF34F8FE3
:103E1000BFF36F8FE3E700BFC84A0020B04B00201C
:103E2000E84A0020CC4A0020E44A0020E04A002072
:103E3000AC4A0020C04A0020BC4A0020104B0020A1
:103E4000FC4A002010B586B01022002102A8FDF720
:103E5000A9FA1C4A02AB12F8014B03F8014B002CE3
:103E6000F9D1194B1948CDE900438022234602A914
:103E7000FFF7FEFE012819D100F088FE012815D1B8
:103E80004FF0400383F31188BFF36F8FBFF34F8F61
:103E90000F4B4FF0FF321A600E4B18600E4B1C6038
:103EA00000F086FF0D4B1B6806B010BD0130F9D144
:103EB0004FF0400383F31188BFF36F8FBFF34F8F31
:103EC000FEE700BF54C40008A44A0020B13B00082C
:103ED000A84A0020BC4A0020C44A002038CC000870
:103EE000024A136801331360704700BFA04A0020E4
:103EF000014B1868704700BFC44A0020014B186886
:103F0000704700BFC84A00202DE9F84F574B1B6887
:103F1000002B40F0A580564B1C6801341C60BCB9D6
:103F2000544B1A68126842B14FF0400383F3118872
:103F3000BFF36F8FBFF34F8FFEE74F4A19681068CA
:103F4000186011604D4A136801331360FFF742FE99
:103F50004B4D4C4A2B68DFF83CC19C424FF00000AF
:103F60000FD2DCF80030DB6A14214B43D358022B0C
:103F7000454B1B6828BF0120002B18BF0120BDE85E
:103F8000F88F3C4F414E3B681B681BB94FF0FF3325
:103F90002B60E6E73B68DB68DB6859688C4201D23E
:103FA0002960DEE7D3E90219D3F81480C1F808903C
:103FB000C9F80410D8F8041003F1040E71454FF04D
:103FC000000108BFC8F804905961D8F80010013901
:103FD000C8F80010D3F82880B8F1000F15D0D3E945
:103FE0000719C1F80890C9F80410D8F8041003F1B3
:103FF000180A51454FF0000108BFC8F804909962B3
:10400000D8F800100139C8F80010D96AD6F8009025
:104010004FF0010808FA01F848EA0908C6F80080DC
:104020004FF0140808FB01F802EB080ADAF80490D4
:10403000C3F80890D9F808B0C3F80CB0CBF804E086
:10404000C9F808E0C3F814A052F80830013342F868
:104050000830DCF80030DB6A994288BF012092E723
:104060000B4A136801331360002088E7A04A002040
:10407000C44A0020E44A0020E04A0020B04A002060
:10408000A84A0020104B0020B44A0020C04A00205B
:10409000B84A0020B04B00202DE9F84F00F032FE66
:1040A0004D4B1A6842B94FF0400383F31188BFF3B8
:1040B0006F8FBFF34F8FFEE71A68013A1A601B68D3
:1040C0002BB1002400F03EFE2046BDE8F88F434AA5
:1040D0001268002AF5D04248424C434A434FDFF869
:1040E00014C10125142653E0C368DB68D3E907181F
:1040F000D3F828E0C1F80880C8F80410DEF80410EE
:1041000003F1180949454FF0000108BFCEF80480BB
:104110009962DEF800100139CEF80010D3E90218D8
:10412000D3F814E0C1F80880C8F80410DEF80410D1
:1041300003F104094945DEF8001008BFCEF80480F9
:104140000139CEF80010D3F82CE0D4F8008005FA3D
:104150000EF141EA080106FB0EF802EB080A2160A5
:10416000DAF804109960D1F808B0C3F80CB0CBF8B5
:104170000490C1F8089052F80810C3F814A0013157
:1041800042F808103968C96A8E4501D9CCF8005048
:1041900001680029A8D10BB1FFF71CFD144D2C6854
:1041A00044B1144E0127FFF7AFFE00B13760013C68
:1041B000F9D12C600F4B1B68002B82D00B4B1B6876
:1041C0004FF0E0234FF08052C3F8042DBFF34F8F20
:1041D000BFF36F8F012475E7A04A0020C84A002072
:1041E000CC4A0020C04A0020104B0020B04B0020D9
:1041F000B84A0020B44A002008B550B94FF0E02377
:104200004FF08052C3F8042DBFF34F8FBFF36F8F71
:1042100008BDFFF765FE0A4B1B68012B08D04FF065
:10422000400383F31188BFF36F8FBFF34F8FFEE717
:10423000FFF7E2FCFFF730FF0028DFD0E8E700BF20
:10424000A04A002038B5264B1A68264B12B101222D
:104250001A6038BD244C1A602368216822680968F6
:10426000126B1B6B91420FD91A68B2F1A53F0BD1AB
:104270005A68B2F1A53F07D19A68B2F1A53F03D1C0
:10428000DB68B3F1A53F04D021682068343102F027
:10429000E3FE164B1A68B2FA82F2D2B2C2F11F02E2
:1042A000142313495343C818CD5845B94FF0400360
:1042B00083F31188BFF36F8FBFF34F8FFEE745681D
:1042C00008336D6845600B449D4204BFC36843607A
:1042D000142303FB02114B68DB6823602368B8E7F3
:1042E000A04A0020B44A0020B04B0020C04A002061
:1042F000104B002010B50C4640B94FF0400383F33B
:104300001188BFF36F8FBFF34F8FFEE7044B19681F
:10431000183100F0B6FA2046BDE81040FFF76CBC3B
:10432000B04B002070B440B94FF0400383F31188C4
:10433000BFF36F8FBFF34F8FFEE70D4B44681D68CF
:10434000A668EC611D682E621D68183575601D68D1
:104350001B681835A56098620368002A03F1010301
:10436000036070BC0CBF08464FF0FF30FFF744BC41
:10437000B04B0020C368DB68F0B543B94FF0400391
:1043800083F31188BFF36F8FBFF34F8FFEE7D3E93D
:1043900007019A6A81604860506803F11804A042DE
:1043A00008BF5160002199621168013911601E4AED
:1043B000D96A1268002A2AD1D3E902405A69A0605A
:1043C000446054681D1DAC4208BF5060106801383D
:1043D00010601648012204688A4022430260144893
:1043E00014224A43861874689C60A768DF607D6069
:1043F000A5605E618358013383500E4B1B68DB6AF6
:10440000994283BF0C4B012018600020F0BD0B4A7D
:104410005068D86185681D626C6084609A62136818
:1044200001331360E9E700BFA04A0020C04A002022
:10443000104B0020B04B0020B44A0020CC4A002092
:10444000034B1B680360034B1B684360704700BF4E
:10445000B04A0020C44A002038B50D46044640B991
:104460004FF0400383F31188BFF36F8FBFF34F8F7B
:10447000FEE741B94FF0400383F31188BFF36F8F1C
:10448000BFF34F8FFEE700F03DFC0E4B206819682C
:104490000D4B62681B68984208D08A4206D80023F8
:1044A0002B60012400F04EFC204638BD2B68881A92
:1044B0008342F4D95B1A134420462B60FFF7C0FFF8
:1044C0000024EFE7C44A0020B04A0020014B01223B
:1044D0001A607047B44A0020054B1B6833B1054B86
:1044E0001868B0FA80F0400940007047012070471A
:1044F000BC4A0020A04A002010B5044600F002FC8F
:10450000A46B00F01FFCB4FA84F0400910BD034610
:1045100010B41A6C08466AB1DC68996814448C427D
:1045200028BF1968DC6028BFD960D9685DF8044BE2
:10453000FBF7B6BF5DF8044B704770B5044600F05A
:10454000E1FB94F8455004F124066DB2002D01DD25
:10455000636AB3B9FF2384F8453000F0F3FB00F041
:10456000D1FB94F8445004F110066DB2002D01DD2A
:1045700023697BB9FF2384F84430BDE8704000F024
:10458000E1BB3046FFF7F6FE08B1FFF79FFF013DA4
:104590006DB2DBE73046FFF7EDFE08B1FFF796FF9F
:1045A000013D6DB2E2E770B50E46044640B94FF0EA
:1045B000400383F31188BFF36F8FBFF34F8FFEE784
:1045C000C56BA5B3036CA3FB053585BB00F09AFB57
:1045D000D4E90F31226862604B43D0185B1A1A4449
:1045E000FF23A563A06084F84430E26084F845307E
:1045F000A6B9236973B104F11000FFF7BBFE48B1FF
:104600004FF0E0234FF08052C3F8042DBFF34F8FDB
:10461000BFF36F8F00F096FB012070BD04F1100016
:1046200000F021F904F1240000F01DF9F2E74FF049
:10463000400383F31188BFF36F8FBFF34F8FFEE703
:10464000F8B50D4617460646D8B1A1FB0023C3B9FD
:10465000484310F1510F14D8503000F063FC044669
:1046600058B165B100F15003C4E90F652360012121
:104670002046FFF798FF84F84C702046F8BD0346AB
:10468000F2E74FF0400383F31188BFF36F8FBFF35E
:104690004F8FFEE72DE9FF410E460192044640B9D7
:1046A0004FF0400383F31188BFF36F8FBFF34F8F39
:1046B000FEE751B9036C43B14FF0400383F3118817
:1046C000BFF36F8FBFF34F8FFEE7FFF705FF054680
:1046D00018B300254FF0000800F014FBA76B47B398
:1046E00031462046FFF713FF2369013FA76373B1EB
:1046F00004F11000FFF73EFE48B14FF0E0234FF009
:104700008052C3F8042DBFF34F8FBFF36F8F00F0BB
:1047100019FB012004B0BDE8F081019B002BD9D02A
:104720004FF0400383F31188BFF36F8FBFF34F8FB8
:10473000FEE7019B1BB900F005FB0020EAE715B975
:1047400002A8FFF77DFE00F0FDFAFFF7C9FB00F0BD
:10475000D9FA94F84430FF2B08BF84F8448094F8C9
:104760004530FF2B08BF84F8458000F0EBFA01A923
:1047700002A8FFF771FE00BB2046FFF7BDFEB0B1F7
:10478000019904F12400FFF7B5FD2046FFF7D5FE9F
:10479000FFF782FC48B94FF0E0234FF08052C3F896
:1047A000042DBFF34F8FBFF36F8F012594E7204691
:1047B000FFF7C3FEFFF770FCF7E72046FFF7BDFEEB
:1047C000FFF76AFC2046FFF797FE0028EDD0B4E71C
:1047D00070B540B94FF0400383F31188BFF36F8F7A
:1047E000BFF34F8FFEE7B9B10C4A00231C461546B4
:1047F0005668864204D105EBC403C3E900100BE000
:104800001BB91668002E08BF13460134082C02F1AC
:104810000802EDD1002BF0D170BD00BFB44B0020D9
:1048200070B504460D46164600F06CFA94F8443014
:10483000FF2B04BF002384F8443094F84530FF2B4D
:1048400004BF002384F8453000F07CFAA36B2BB939
:104850003246294604F12400FFF764FD2046BDE8F6
:104860007040FFF76ABE00F108034FF0FF32C0E965
:104870000223436003610023036070470023036148
:10488000704730B50C68631C0AD103695A684A60E6
:1048900091608B605960036808610133036030BD2B
:1048A00000F10802134652681568A542FAD9EDE7EF
:1048B000D0E9011203698A6051605968814208BFDA
:1048C0005A600022026118680138186070470000C1
:1048D000914208B5416000610AD8D21A83699A42B0
:1048E0000DD2084B011D1868FFF7CBFF002008BD53
:1048F0009A4201D2994202D2034B011DF3E70120F3
:10490000F5E700BF004C0020044C002070B50446C1
:104910000D461646A1692B46324629442046FFF72C
:10492000D7FF00B970BDA36920461D44236A98478C
:10493000F0E700000E4B1B68DB6870B5DC680546CD
:10494000201D0E46FFF7B4FF94F828305A0709D50A
:10495000324629462046FFF7D9FF236A2046BDE8A4
:104960007040184723F0010384F82830F5E700BFB2
:10497000044C0020F8B50F4E0546FFF7B9FA33682E
:104980008342044609D90C4F3B681A6852B90B4A56
:10499000116839601360012300E000232B6034604C
:1049A0002046F8BDDB684FF0FF311868FFF7C2FF03
:1049B000EAE700BFF44B0020044C0020004C00202C
:1049C0002DE9F043DFF86881574F85B00026D8F80D
:1049D0000030D3F80090B9F1000F39D0DB68D3F87C
:1049E00000900024FFF77CFA01A8FFF7C3FF019BAA
:1049F0000546002B49D16CBB484531D3FFF74CFB32
:104A000029464846FFF796FFCDE9016603963868C8
:104A1000002201A9FFF73EFE0028D8D0019B002B01
:104A2000F5DB039C002CF2D0636913B1201DFFF766
:104A30003FFF6846FFF79EFF019B013B0546082BA1
:104A4000E5D8DFE803F02525484F682525484F00C5
:104A50000124C7E7354B1B681C68B4FA84F4640969
:104A600038682246A9EB0501FFF7DAFEFFF714FBD1
:104A70000028C9D14FF0E0234FF08052C3F8042D35
:104A8000BFF34F8FBFF36F8FBEE7FFF705FBBBE7A9
:104A900094F82830A16943F0010384F82830029B80
:104AA000024619442046FFF713FF0028AFD094F8C0
:104AB000283059070AD5A36902992A461944204685
:104AC000FFF724FF236A20469847A0E723F001035D
:104AD00084F82830F6E794F8283023F0010384F8AE
:104AE000283094E794F8283043F0010384F8283004
:104AF0000299A16141B94FF0400383F31188BFF3DC
:104B00006F8FBFF34F8FFEE70346024601442046F6
:104B1000FFF7DEFE7BE794F828309A07DDD42046C5
:104B200000F0CAFA73E700BFFC4B0020004C0020E5
:104B3000044C0020F8B50F4C00F0E4F82568ADB93E
:104B40000D4F0E4E3846FFF78EFE3046FFF78BFEB8
:104B50000B4B1F600B4B2A460C210A201E60FFF7EF
:104B60006FFD206010B10849FFF732FEBDE8F84044
:104B700000F0E8B8FC4B00201C4C0020084C002042
:104B8000044C0020004C002059C4000807B5FFF772
:104B9000D1FF0E4B1B6843B94FF0400383F31188DC
:104BA000BFF36F8FBFF34F8FFEE7094B01930723CE
:104BB00000930849084800234FF48072FFF758F823
:104BC0000028E9D003B05DF804FB00BFFC4B0020D7
:104BD000F84B00205EC40008C1490008064B196864
:104BE0000868B0E8F04F80F30988BFF36F8F4FF08B
:104BF000000080F311887047B04B0020084800681F
:104C0000006880F308884FF0000080F3148862B6D3
:104C100061B6BFF34F8FBFF36F8F00DF00BF00009F
:104C200008ED00E0EFF30980BFF36F8F144B1A68B3
:104C30001EF0100F08BF20ED108A20E9F04F106021
:104C40002DE909004FF0400080F31188BFF34F8F2A
:104C5000BFF36F8FFFF7F6FA4FF0000080F3118873
:104C600009BC19680868B0E8F04F1EF0100F08BFC3
:104C7000B0EC108A80F30988BFF36F8F7047000093
:104C8000B04B0020DFF80C00016841F470010160B6
:104C90007047000088ED00E082B0002301930D4BC7
:104CA0001B68013308D04FF0400383F31188BFF332
:104CB0006F8FBFF34F8FFEE74FF0400383F31188F0
:104CC000BFF36F8FBFF34F8F019B002BFCD002B05F
:104CD000704700BF740500204FF0807340F8043C1B
:104CE000074B40F80C3C21F001016FF0020340F843
:104CF000081C40F8202C40F8243C4438704700BF82
:104D0000994C00084FF0400383F31188BFF36F8F75
:104D1000BFF34F8F0A4A13680133012B13600ED182
:104D20004FF0E023D3F8043DDBB243B14FF0400332
:104D300083F31188BFF36F8FBFF34F8FFEE7704788
:104D400074050020084A136843B94FF0400383F309
:104D50001188BFF36F8FBFF34F8FFEE7013B1360E6
:104D60000BB983F3118870477405002008B54FF024
:104D7000400383F31188BFF36F8FBFF34F8FFFF7AB
:104D8000C3F828B14FF0E0234FF08052C3F8042D50
:104D9000002383F3118808BD4FF0E02300221A613D
:104DA0009A61024A5A6103221A6170473F0D03005B
:104DB0004FF0E02337B5D3F8001D524A914208D195
:104DC0004FF0400383F31188BFF36F8FBFF34F8F12
:104DD000FEE7D3F8001D4C4A914208D14FF0400342
:104DE00083F31188BFF36F8FBFF34F8FFEE7D3F8C4
:104DF000083D464AD96A914208D04FF0400383F3F8
:104E00001188BFF36F8FBFF34F8FFEE79A6B404B54
:104E10009A4208D04FF0400383F31188BFF36F8F9D
:104E2000BFF34F8FFEE7002301933A4B1A78D2B2BB
:104E30008DF80220FF221A701B78374ADBB28DF8FA
:104E400003309DF8033003F04003137043B94FF073
:104E5000400383F31188BFF36F8FBFF34F8FFEE7DB
:104E60009DF803305B0610D44FF0400383F31188A4
:104E7000BFF36F8FBFF34F8FFEE7013301939DF8B0
:104E800003305B00DBB28DF803309DF8033013F084
:104E9000800F019BF1D1082B18BF019B1F4A14BF43
:104EA000C3F1070300231B0203F4E06313609DF8C2
:104EB0000230184A4FF0E024DBB21370D4F8203DE2
:104EC00043F47F03C4F8203DD4F8203D002543F08F
:104ED0007F43C4F8203DC4F81C5DFFF75DFF104B15
:104EE0001D60FFF7CFFED4F8343F43F04043C4F8D1
:104EF000343FFFF783FEFFF7A5F9FFF7CDFE284605
:104F000003B030BD71C20F4170C20F41DD4B0008CC
:104F1000254C000800E400E0344C0020304C002018
:104F200074050020F8B5431E0A3349D810F0070372
:104F300000F1080405D0A3F10902A24240D31030C9
:104F4000C41A564EFEF7CCFF3368F3B9544A55489D
:104F500053071FBFD11D21F0070102F58032531AFC
:104F60000CBF4FF480330A461344083B23F0070379
:104F7000002141600260C3E90011991AC2E90031C1
:104F80003360494B1960494B1960002C40F3818014
:104F9000DFF818C1DCF80010A1427AD3414ADFF8EB
:104FA00000E11368734502D3414FBB4219D94FF05A
:104FB000400383F31188BFF36F8FBFF34F8FFEE77A
:104FC0000024BEE7754502D3BD421A4608D94FF00A
:104FD000400383F31188BFF36F8FBFF34F8FFEE75A
:104FE0002B465868A04202D21D68002DEAD13568D0
:104FF0009D424ED015680835754501D3BD4208D98C
:105000004FF0400383F31188BFF36F8FBFF34F8FCF
:10501000FEE71F681760A0420FD3001B102819D9A4
:105020001E1916F0070F11D04FF0400383F31188BB
:10503000BFF36F8FBFF34F8FFEE74FF0400383F353
:105040001188BFF36F8FBFF34F8FFEE770605C6016
:105050001F51166058680A1A1349CCF800200C68D2
:10506000A24238BF0A6000221A60124A40F0004093
:105070005860136801331360FFF70EF86B070AD00E
:105080004FF0400383F31188BFF36F8FBFF34F8F4F
:10509000FEE70025F0E72846F8BD00BF484C002099
:1050A000544C00204C4C0020404C0020444C00202C
:1050B000534C01203C4C0020F8B5054600286BD02D
:1050C000364FA0F10804BC4212D3354EB4420FD87B
:1050D00050F8043C002B14DA50F8082CD2B14FF0F1
:1050E000400383F31188BFF36F8FBFF34F8FFEE749
:1050F0004FF0400383F31188BFF36F8FBFF34F8FDF
:10510000FEE74FF0400383F31188BFF36F8FBFF3C7
:105110004F8FFEE723F0004340F8043CFEF7E0FE2B
:10512000204A55F8041C13680B4413601E4B1846A4
:105130001A461B689C42FBD882420CD0BA4201D36B
:10514000B24208D94FF0400383F31188BFF36F8F49
:10515000BFF34F8FFEE750681518AC4202BF091825
:1051600014465160606821188B4213D10F490968B9
:105170008B4203D059680144616019682160A242E2
:1051800018BF14600A4A136801331360BDE8F84081
:10519000FEF782BF1946F1E7F8BD00BF544C00206E
:1051A000534C0120444C00204C4C0020484C002023
:1051B000384C0020014B1868704700BF444C002059
:1051C000014B1868704700BF404C002008B500F044
:1051D0000DF800F0F9F800F062F900F039FCBDE8D4
:1051E000084000F0F9BB40BA80B270470A4B0B4A46
:1051F0000B4923F0030313604FF480421A6000222E
:105200001A7103F580420A604FF0402111600121BC
:105210001171044A13607047634C01205C4C0120FB
:10522000584C0120544C0120F0B5002856D083077B
:1052300054D12B4B1B68A0F1080293424ED8294948
:10524000D1F800C000F10C018C4547D310F8041CC4
:10525000002943D030F8086C30F8061CB6F5804FB2
:105260003CD8B1F5804F39D8D41AA4B28C4202D0C0
:10527000595AA14232D19D19AC4502D06988A14248
:105280002CD1002100F8041C17490F68974288BFF1
:105290000A60AA420FD02F796FB9AC450BD00F68C6
:1052A000BD429D5B08BF0A60B5F5804F20F8085CE1
:1052B0001CBFED186C8030F8064C1D19AA420DD0A9
:1052C0002E795EB90E68B24230F8082C08BF0D6026
:1052D000B2F5804F1A531CBF9B185C80F0BD00BF15
:1052E0005C4C0120584C0120544C01202DE9F04128
:1052F000002845D0C31C23F003039BB20B2B04D919
:10530000B3F5804F02D900203AE00C239842FAD836
:10531000204E214A34681568611B89B2C3F5804E5E
:105320006FF007087145EED268186F5A90F804C004
:10533000BCF1000F2CD1A8EB01023A449A4227D3CA
:1053400003F1140E72451DD308330B449AB215FABB
:1053500083F383F804C0AF525980012302800371A4
:10536000AB5AB3F5804F01D02B445A80844206D10A
:105370000A4B1B6822790AB1A34206D13460083077
:10538000BDE8F08101230371F0E724882C44F1E7A4
:105390003946C7E7544C01205C4C0120584C012091
:1053A0008368C16830B500220333C4880A6023F0E3
:1053B0000303944200DC30BD0D681D6085880B60DE
:1053C00001322B44F5E7000008B50A48FFF7E8FF73
:1053D0000948FFF7E5FF0948FFF7E2FF0848FFF734
:1053E000DFFF0848FFF7DCFFBDE808400648FFF78D
:1053F000D7BF00BFA4CC000894CC000884CC000820
:1054000074CC000864CC000854CC0008052808D8E7
:10541000054B53F82030DB68186818B102681A6031
:1054200070470020704700BF3CCC0008052807D813
:1054300031B1044B53F82030DB681A680A601960F8
:10544000704700BF3CCC00086FF00B00704790F82D
:10545000353003F00502052A014606D1426822B123
:105460001B0702D5043100F05BBF704737B5044617
:10547000104663680A689A420D460ED0036001A97F
:10548000019200F021FC2B68636001212046FFF7A8
:10549000DEFFE3690BB12046984703B030BD70478B
:1054A000F7B5144E002914BF0D463546002A14BF27
:1054B00017463746002B18BF1E462B680446B3B963
:1054C00001AA2946FFF7D2FF01233A68A1688A4260
:1054D00018BFA2603268E1688A4218BFE26023B94F
:1054E00001AA29462046FFF7C1FF03B0F0BD002303
:1054F000EBE700BFC4CC0008F8B5079E044610B91E
:1055000000242046F8BD002EFAD00025C0E9015540
:10551000C0E90755C560858580F83550069D456210
:105520001B4D1C4FDFF874C047612F7880F838702E
:10553000089F0761002B08BF6346002A08BF624628
:10554000002908BF6146FFF7ABFF2046B04700289F
:10555000D6D111490E6894F83830FF2B08BF84F873
:10556000380094F8382033463BB9FE2A1CBF01327C
:10557000D3B226602B700C60C3E793F83870974263
:1055800003D1013284F83820E5E71B68ECE700BF5F
:105590002BF201204954000830F20120C4CC00084D
:1055A000014B1860704700BF2CF2012010B5044673
:1055B00080B190F83530DA070CD443F0010380F85D
:1055C0003530C36903B1984720460321BDE8104038
:1055D000FFF73DBF10BD0000034658B1064A1068F2
:1055E00000B9704790F838200132D2B29A4201D007
:1055F0000068F5E7704700BF30F2012030B5B0B168
:10560000B1F5803F13D209B9002030BD038913FAE8
:1056100081F38CB29BB29C4209D890F90C50002DBA
:1056200007DA4268511A00F11002914205D20120B6
:10563000EBE7002AFBD04268511A428941601444CA
:1056400044810381E0E770B5064604200C46154608
:10565000FFF7DCFE40B10023C0E9003643730123AD
:10566000048144810573C38170BD70B5033020F09F
:105670000304BDF81400049D0E1986424FF000008B
:105680000BD805B125441A7302225A730122C3E9CB
:10569000000519815981DA81184670BD0022FFF793
:1056A000ADBF38B530B30024837B013BDBB28373DD
:1056B0004BB9427B0568037B920708D5036998477D
:1056C0000134E4B20DB9204638BD2846ECE703F0BA
:1056D0000F03022B04D101460520FFF7A7FEEFE7D9
:1056E000012B02D101460420F7E7002BE8D1FFF798
:1056F0009BFDE5E70446E6E7B2F5C17F2DE9F843F7
:1057000007460D46064610D008D822F04003012B6C
:1057100007D1BDE8F8430020FFF795BFB2F5207F21
:1057200032D000242046BDE8F8830020DFF89C80BA
:105730000446074681460520FFF768FE28B9002C7D
:10574000EFD02046FFF7ADFFEBE7F31C23F0030398
:10575000C3F5C0639BB20644AB4206F1130628BFF3
:105760002B4626F003060760466005814381C0F89A
:105770000C803CB1C9F80000EB1A9DB20026002D48
:10578000D8D1CFE70446F7E7C31CCA1C22F00302B6
:1057900023F0030313449BB203F11000934280B241
:1057A000BFD38242BDD8FFF7A1FD04460028B9D07F
:1057B000074400231337036027F00307024B4760B9
:1057C00005814581C360ADE78000010082000100D2
:1057D00000235A1C08B998B2704700681346F8E7CE
:1057E00010B1837B01338373704710B500B109B9E1
:1057F00010BD104603890C89026823449BB20381C3
:10580000002AF6D10160F3E710B5FFF7EEFFBDE81F
:1058100010400846FFF7E4BF2DE9F8430546164659
:1058200098460C4681B30B8993422DD360B302890D
:1058300008EB06039A4227DB4FF000096F89638962
:1058400068686168A7EB0807A3EB09039F4228BFBC
:105850001F46B74228BF37463A4649444044FAF704
:105860001FFE6389B944B8444B45A6EB0707BEB297
:1058700004D8246804B93EB94FF000096B89434548
:105880001DD12D68CDB9EEB16FF00F0010E0B0461C
:10589000628923899A4201D123685BB92DB16A8953
:1058A0002B899A4201D12B6823B9002EC6D13046EC
:1058B000BDE8F8836FF00500FAE74FF00008002C10
:1058C000E6D1ECE7002CE2D12046F1E719B10A89D4
:1058D0000023FFF7A1BF6FF00F0070472DE9F041E3
:1058E0000F4614460546B8B1B1B10389934216D3A9
:1058F0004FF0000814B92046BDE8F0816E89686851
:10590000A64228BF264607EB08013246FAF7C8FD33
:10591000A41B2D68B044EDE76FF00F00ECE74FF0EB
:10592000FF30E9E738B515460A462989FFF7E4FE56
:10593000044610B12946FFF7C9FF204638BD0000D4
:1059400070B5044603200E461546FFF75FFD40B1D3
:105950000C4A4460002303601368C0E902650BB978
:10596000106070BD5968611A002901DA0360F7E719
:1059700019461B681BB15A68A21A002AF8DA03609C
:105980000860EEE738F2012070B543680446984796
:10599000FEF728F8074B2668074905461868304483
:1059A000431B002B2246B8BF7019BDE87040FFF7BB
:1059B000C7BF00BF34F201208959000870B5044602
:1059C0000D461646FEF70EF8324629462044BDE83D
:1059D0007040FFF7B5BF000038B5084D084C2A46A7
:1059E00021464FF47A70FFF7E9FF05F108022146DE
:1059F0004FF47A70BDE83840FFF7E0BFB4CC000840
:105A0000895900082DE9F041FDF7ECFF0E4EDFF853
:105A10003C8004463168A1B14868221A002A02DAA3
:105A2000001BBDE8F081D1E902570A68C8F8000000
:105A300003203260FFF7FAFC002DEBD03846A84770
:105A4000E8E74FF0FF30ECE738F2012034F20120B4
:105A5000704700002C4B2DE9F041002914BF0F4680
:105A60001F4600284DD0294E3468214659B982B1CD
:105A70003D682346002B30D13B68036042820029F9
:105A80003CD0002025E0814201D0C968EEE7012129
:105A9000EDE7DFF87CC0BCF800304FF480424FF6F1
:105AA000FF7E73451ABF01339BB24FF44043254636
:105AB0000DB91A4607E0B5F8128098450BD1013AA6
:105AC00092B2002AEDD1ACF80030002AD4D16FF0A8
:105AD0000700BDE8F081ED68EAE783420CD0B3F837
:105AE00012C0944508D1D3F800C0AC45EFD0002DCA
